:100000000C94A1010C94C9010C94C9010C9499079A
:100010000C9499070C9499070C94C9010C94C9018C
:100020000C94C9010C94C9010C94C9010C94C90128
:100030000C94C9010C94C9010C94C9010C94C90118
:100040000C944F070C94C9010C94EF050C94C9054E
:100050000C94C9010C94C9010C94C9010C94C901F8
:100060000C94EB090C94C90107634236B79BD8A7DF
:100070001A39685618AEBAAB558C1D3CB7CC5763CD
:10008000BD6DEDFD753EF6177231BF000000803F7B
:1000900008000000BE922449123EABAAAA2ABECD97
:1000A000CCCC4C3E00000080BEABAAAAAA3E000009
:1000B0000000BF000000803F000000000008417801
:1000C000D3BB4387D1133D190E3CC3BD4282AD2B38
:1000D0003E68EC8276BED98FE1A93E4C80EFFFBE30
:1000E00001C4FF7F3F000000000000407A10F35A77
:1000F00000A0724E18090010A5D4E80000E8764868
:10010000170000E40B54020000CA9A3B000000E113
:10011000F505000080969800000040420F000000A6
:10012000A08601000000102700000000E803000086
:1001300000006400000000000A0000000000010050
:10014000000000002C76D888DC674F0823DFC1DF71
:10015000AE59E1B1B796E5E3E453C63AE651997674
:1001600096E8E6C28426EB898C9B62ED407C6FFCAE
:10017000EFBC9C9F40F2BAA56FA5F490055A2AF7F0
:100180005C936B6CF9676DC11BFCE0E40D47FEF5F9
:1001900020E6B500D0ED902E030094357705008061
:1001A000841E080000204E0A000000C80C333333C0
:1001B000330F986E12831141EF8D2114893BE65560
:1001C00016CFFEE6DB18D1844B381BF77C1D901D43
:1001D000A4BBE424203284725E228100C9F124ECA5
:1001E000A1E53D2700000000240027002A00005E52
:1001F000BCE2613FDD83C29C7E20A3FD1F419DC305
:10020000217FFCA2401E5F01E3BD3E6082DC237DB6
:100210009FC1421CFEA0E1BF5D0380DE3C62BEE0E8
:10022000025CDF81633D7C22C09E1D43A1FF461816
:10023000FAA427799BC584DA3866E5BB5907DB85C4
:100240006739BAE406581947A5FB7826C49A653B76
:10025000D987045AB8E6A7F91B45C6987A24F8A6A8
:10026000441A99C7257B3A6486D85B05E7B98CD2D6
:10027000306EEDB3510F4E10F2AC2F7193CD114F84
:10028000ADF3702ECC92D38D6F31B2EC0E50AFF136
:10029000134DCE90722C6D33D18F0C52B0EE326C68
:1002A0008ED0530DEFB1F0AE4C1291CF2D73CA9496
:1002B0007628ABF517490856B4EA6937D58B570944
:1002C000EBB536688AD495CB2977F4AA4816E9B7F6
:1002D000550B88D6346A2B7597C94A14F6A8742A28
:1002E000C896154BA9F7B6E80A54D7896B350000B4
:1002F00000080002010000030407000000000000E5
:10030000000000000000250028002B000000000075
:100310002300260029000404040404040404020247
:100320000202020203030303030301020408102074
:1003300040800102040810200102040810202E1C35
:10034000201C11241FBECFEFD8E0DEBFCDBF24E0BC
:10035000ACEBB1E001C01D92A632B207E1F711E0AB
:10036000A0E0B1E0E4EAF0E502C005900D92AC3BFC
:10037000B107D9F711E0C0EAD1E004C02197FE012E
:100380000E943326CF39D107C9F70E9457120C9427
:1003900045280C940000CF92DF92EF92FF920F93CA
:1003A0001F93CF93DF936C017A018B01C0E0D0E003
:1003B000CE15DF0589F0D8016D918D01D601ED9143
:1003C000FC910190F081E02DC6010995892B11F473
:1003D0007E0102C02196ECCFC701DF91CF911F9122
:1003E0000F91FF90EF90DF90CF900895FC01538D17
:1003F000448D252F30E0842F90E0821B930B5417FF
:1004000010F0CF96089501970895FC01918D828D8B
:10041000981761F0828DDF01A80FB11D5D968C9158
:10042000928D9F5F9F73928F90E008958FEF9FEF63
:100430000895FC01918D828D981731F0828DE80F1F
:10044000F11D858D90E008958FEF9FEF0895FC01D9
:10045000918D228D892F90E0805C9F4F821B9109A6
:100460008F739927089583EE92E00E94270221E07E
:10047000892B09F420E0822F0895FC01848DDF018F
:10048000A80FB11DA35ABF4F2C91848D90E0019607
:100490008F739927848FA689B7892C93A089B189F6
:1004A0008C9180648C93938D848D981306C0028800
:1004B000F389E02D80818F7D80830895EF92FF92F4
:1004C0000F931F93CF93DF93EC0181E0888F9B8D77
:1004D0008C8D981305C0E889F989808185FD24C039
:1004E000F62E0B8D10E00F5F1F4F0F731127E02EBC
:1004F0008C8DE8120CC00FB607FCFACFE889F98999
:10050000808185FFF5CFCE010E943D02F1CF8B8D1A
:10051000FE01E80FF11DE35AFF4FF0820B8FEA89CD
:10052000FB898081806207C0EE89FF896083E8894A
:10053000F98980818064808381E090E0DF91CF91B0
:100540001F910F91FF90EF900895CF93DF93EC01EF
:10055000888D8823C9F0EA89FB89808185FD05C0E3
:10056000A889B9898C9186FD0FC00FB607FCF5CF1D
:10057000808185FFF2CFA889B9898C9185FFEDCF65
:10058000CE010E943D02E7CFDF91CF91089580E038
:1005900090E0892B29F00E94330281110C94000015
:1005A00008953FB7F8948091720290917302A091E0
:1005B0007402B091750226B5A89B05C02F3F19F0B3
:1005C0000196A11DB11D3FBFBA2FA92F982F8827D3
:1005D000820F911DA11DB11DBC01CD0142E0660F2E
:1005E000771F881F991F4A95D1F708952091BE0162
:1005F0003091BF012817390771F49091BC018091A7
:10060000BD01981741F0E091BC01F0E0EF5CFD4FB7
:10061000808190E008958FEF9FEF089508951F93D4
:10062000CF93DF93DC015C962D913C915D97211572
:10063000310539F481E090E013969C938E931297E4
:100640003DC05196ED91FC91529750969C915097D8
:10065000892F80951FB75E964C915E9741FB772757
:1006600070F941FD6095F8944081772311F0492B92
:1006700001C048234083E9012197F1F748E0508108
:1006800060FF02C0592B01C058235083E901219714
:10069000F1F76695415099F7772321F090818923EE
:1006A000808303C08081982B90831FBF5C968D91BF
:1006B0009C915D970197F1F721E030E0C901DF914E
:1006C000CF911F9108952091BE013091BF0128174D
:1006D000390771F48091BD012091BC0190E0805CEC
:1006E0009F4F821B910960E470E00E94B524089539
:1006F00080E090E008952091BE013091BF0128175D
:100700003907B9F49091BC018091BD01981789F027
:10071000E091BC01F0E0EF5CFD4F80812091BC01D5
:1007200030E02F5F3F4F2F7333272093BC0190E0C1
:1007300008958FEF9FEF08950895FC019081018047
:10074000F281E02D892F809560FF12C0F8942281FC
:10075000822382838181892B8183A3E2B0E0119778
:10076000F1F78281982B9283789487ED90E011C005
:10077000F8942281822382838181892B8183AFEF48
:10078000B0E01197F1F78281982B928378948FE0F3
:1007900090E00197F1F7089585ED8093BC0080917A
:1007A000BC0084FDFCCF1092BE02089540910C0263
:1007B000262F30E0240F311D21323105DCF4209149
:1007C000BE022430C9F4FC0180E090E0861758F4A2
:1007D00030910C022191DC01A651BE4FA30FB11D37
:1007E0002C930196F3CF80910C02680F60930C025A
:1007F00080E0089581E0089582E008950895E091F1
:10080000770280917602E81730F4F0E0E858FD4F67
:10081000808190E008958FEF9FEF08959091770287
:1008200080917602981750F4E92FF0E0E858FD4FD8
:10083000208130E09F5F9093770202C02FEF3FEF5F
:10084000C90108958091760290E020917702821B81
:1008500091090895CF92DF92EF92FF920F931F9329
:10086000CF93DF937C01262F972F8A018091BF02BF
:10087000882391F0C62FD72F6E01C40ED51ECC153C
:10088000DD0571F06991D701ED91FC910190F08146
:10089000E02DC7010995F3CF642F822F0E94D60364
:1008A000C801DF91CF911F910F91FF90EF90DF90E2
:1008B000CF900895CF93DF931F92CDB7DEB76983B2
:1008C0002091BF022223D1F02091E202203240F099
:1008D00021E030E0FC013383228380E090E015C00A
:1008E0008091C002E82FF0E0EF53FD4F9981908393
:1008F0008F5F8093C0028093E20205C061E0CE0169
:1009000001960E94D60381E090E00F90DF91CF9195
:100910000895089580E090E008950E9430280F9394
:100920001F93CF93DF93EC0188819981009729F081
:100930002A813B812617370788F48B016F5F7F4F31
:100940000E946627009761F0998388831B830A833E
:100950002C813D81232B11F4FC01108281E001C028
:1009600080E0DF91CF911F910F910895CF93DF9396
:10097000EC0188819981009711F00E94CE2619829E
:1009800018821D821C821B821A82DF91CF910895EA
:10099000EF92FF920F931F93CF93DF93EC017B01B4
:1009A0008A01BA010E948F04811104C0CE010E9405
:1009B000B60407C01D830C83B701888199810E940A
:1009C0003E28CE01DF91CF911F910F91FF90EF90C4
:1009D0000895EF92FF920F931F93CF93DF93FC0143
:1009E000248135816115710511F480E019C041152C
:1009F0005105A9F07B01EC018A01020F131FB80118
:100A00000E948F04882389F3288139818C819D81FC
:100A1000B701820F931F0E943E281D830C8381E043
:100A2000DF91CF911F910F91FF90EF900895CF9399
:100A3000DF93EC016115710561F0FB01019000206D
:100A4000E9F73197AF01461B570B0E94E90481116A
:100A500003C0CE010E94B604CE01DF91CF9108956C
:100A6000CF93DF93EC01FB0144815581608171815B
:100A70000E94E904811103C0CE010E94B604CE0198
:100A8000DF91CF910895CF93DF93EC01611571054C
:100A900059F0FB0101900020E9F73197AF01461BA7
:100AA000570B0E94C80402C00E94B604CE01DF9119
:100AB000CF910895CF93DF93EC01FB018617970741
:100AC00061F0608171816115710529F04481558162
:100AD0000E94C80402C00E94B604CE01DF91CF91EB
:100AE0000895FC01808191810C94CE26EF92FF92B3
:100AF0000F931F93CF93DF93CDB7DEB7A1970FB6B8
:100B0000F894DEBF0FBECDBF7C01CB01BA01F70167
:100B100011821082138212821582148242E0420FE7
:100B20008E010F5F1F4F0E946B1DBC01C7010E9409
:100B30004305A1960FB6F894DEBF0FBECDBFDF917F
:100B4000CF911F910F91FF90EF900895FC011182BA
:100B5000108213821282158214826115710551F080
:100B6000FB0101900020E9F73197AF01461B570BBD
:100B70000C94C8040895DC01ED91FC91DB011496FE
:100B80004D915C9115976D917C910280F381E02DE0
:100B900009941F920F920FB60F9211242F933F9337
:100BA0004F935F936F937F938F939F93AF93BF9375
:100BB000EF93FF9383EE92E00E943D02FF91EF914D
:100BC000BF91AF919F918F917F916F915F914F9165
:100BD0003F912F910F900FBE0F901F9018951F926D
:100BE0000F920FB60F9211242F938F939F93EF9331
:100BF000FF93E091F302F091F4028081E091F90219
:100C0000F091FA0282FD12C090818091FC028F5F08
:100C10008F732091FD02821751F0E091FC02F0E009
:100C2000ED51FD4F958F8093FC0201C08081FF91B3
:100C3000EF919F918F912F910F900FBE0F901F906A
:100C40001895833081F028F4813099F08230A1F03A
:100C500008958730A9F08830B9F08430D1F48091BC
:100C600080008F7D03C0809180008F77809380000B
:100C7000089584B58F7702C084B58F7D84BD0895B3
:100C80008091B0008F7703C08091B0008F7D8093FA
:100C9000B00008951F93CF93DF93282F30E0F90120
:100CA000E251FD4F8491F901E65DFC4FD491F901C9
:100CB000EA5EFC4FC491CC23C9F0162F81110E942B
:100CC0002106EC2FF0E0EE0FFF1FEE5FFC4FA59129
:100CD000B4918FB7F894111105C09C91ED2FE09558
:100CE000E92302C0EC91ED2BEC938FBFDF91CF9104
:100CF0001F910895CF93DF9390E0FC01E65DFC4FD8
:100D00002491FC01EA5EFC4F8491882361F190E01C
:100D1000880F991FFC01EC51FE4FC591D491FC0145
:100D2000EE5FFC4FA591B491611109C09FB7F89493
:100D30008881209582238883EC912E230BC062301A
:100D400061F49FB7F8943881822F8095832388833C
:100D5000EC912E2B2C939FBF06C08FB7F894E8819F
:100D60002E2B28838FBFDF91CF9108951F93CF93B0
:100D7000DF93182FEB0161E00E947A06209711F4AF
:100D800060E004C0CF3FD10539F461E0812FDF91ED
:100D9000CF911F910C944A06E12FF0E0E251FD4FF4
:100DA000E491E330F9F048F4E130B9F0E230A1F534
:100DB00084B5806284BDC8BD34C0E730E9F0E83056
:100DC00019F1E43049F580918000806280938000C1
:100DD000D0938B00C0938A0024C084B5806884BD02
:100DE000C7BD1FC080918000806880938000D09331
:100DF0008900C093880015C08091B00080688093FE
:100E0000B000C093B3000DC08091B00080628093A9
:100E1000B000C093B40005C0C038D1050CF0B5CF08
:100E2000AFCFDF91CF911F9108958F929F92AF9294
:100E3000BF92CF92DF92EF92FF926B017C010E94F2
:100E4000D1024B015C01C114D104E104F104F1F0C1
:100E50000E94D102DC01CB0188199909AA09BB09BA
:100E6000883E9340A105B10570F321E0C21AD10874
:100E7000E108F10888EE880E83E0981EA11CB11CE1
:100E8000C114D104E104F10419F7DDCFFF90EF9014
:100E9000DF90CF90BF90AF909F908F9008951F925A
:100EA0000F920FB60F9211242F933F938F939F931E
:100EB000AF93BF9380911E0490911F04A0912004D2
:100EC000B09121043091710223E0230F2D3720F4DB
:100ED0000196A11DB11D05C026E8230F0296A11D94
:100EE000B11D2093710280931E0490931F04A09360
:100EF0002004B09321048091720290917302A0911A
:100F00007402B09175020196A11DB11D8093720209
:100F100090937302A0937402B0937502BF91AF9146
:100F20009F918F913F912F910F900FBE0F901F9027
:100F300018951F920F920FB60F9211242F933F9383
:100F40004F935F936F937F938F939F93AF93BF93D1
:100F5000EF93FF93E091BE01F091BF01309709F448
:100F600051C0968DA685B785858591FF04C09C915B
:100F7000892329F447C09C91892309F043C0A389A0
:100F8000B4899C918589809589238C9386899789DA
:100F90000197F1F7608D718DA685B785558538E08D
:100FA00020E0CB010197F1F7822F90E0959587958E
:100FB000282F4C91452309F02068315091F7868DF8
:100FC00081FD20958091BD0190E001968F73992756
:100FD0003091BC01381749F0A091BD01B0E0AF5C81
:100FE000BD4F2C938093BD0103C0868D8160868F99
:100FF000828D938D0197F1F7A389B4899C9185899E
:10100000892B8C93FF91EF91BF91AF919F918F911D
:101010007F916F915F914F913F912F910F900FBEF4
:101020000F901F901895E091BE01F091BF01E81755
:10103000F90769F4A389B4899C91858980958923EE
:101040008C931092BF011092BE0181E0089580E060
:101050000895DC01E0E0615038F08D91E827F0E080
:10106000E251FE4FE491F7CF8E2F0895CF92DF9299
:10107000EF92FF920F931F93CF93DF931F92CDB701
:10108000DEB76C01E62E08E010E0FF24F39461E087
:101090008F2D8E2109F460E0C60149830E949D03D3
:1010A000FF0C0150110949810115110581F741110A
:1010B00015C0F894D6011196ED91FC91129791818B
:1010C0008C918095892381831196ED91FC911297E3
:1010D00092818C9180958923828378940F90DF91FF
:1010E000CF911F910F91FF90EF90DF90CF900895D7
:1010F000CF92DF92EF92FF920F931F93CF93DF93E4
:101100001F92CDB7DEB78C01F62E40E065E57983FE
:101110000E943608CF2C7981D72E760188E0E80E20
:10112000F11CF60161916F0140E0C8010E94360890
:10113000CE14DF04B1F70F90DF91CF911F910F9183
:10114000FF90EF90DF90CF900895FC019081018097
:10115000F281E02DF8948181892B81832281892F6E
:10116000809528232283A7E0B0E01197F1F7218131
:1011700082238183A3E2B0E01197F1F78081789414
:10118000EFECF0E03197F1F7982381E009F480E08B
:101190000895FC0190810180F281E02DF894818115
:1011A000292F20958223818378948DE743E050E0B6
:1011B000815021F1DA011197F1F730813923C1F320
:1011C000F8948281822382838181892B8183789420
:1011D000ABE7B7E01197F1F7F894818128232183D9
:1011E000A3E1B1E01197F1F78081982381E009F044
:1011F00080E07894E3E6F6E03197F1F70895AF9256
:10120000BF92CF92DF92EF92FF920F931F93CF93F3
:10121000DF931F92CDB7DEB75C01E62ED72EFC011F
:10122000858581115DC0C5010E94C908811105C075
:10123000F5011386158614866BC040E060EFC5018A
:101240000E94360801E0F12CC12C11E0C5010E947A
:10125000A508682FC50169830E94A50869816130CE
:1012600019F48130B9F433C04F2D50E068131BC01E
:10127000F5018385181730F4E40FF51F838180236F
:1012800049F402C0181731F060E0193058F4F50144
:10129000148708C0F501EF0DF11D8381802B838336
:1012A00061E009C0C12EF501E40FF51F9381802F85
:1012B000809589238383C5010E949D031F5F000FD2
:1012C00011F4F39401E0F7E0FF1508F0BFCF1134FB
:1012D00038F0F501C386C11015C081E0858712C0C2
:1012E000F50113861586148680E0D5011396EE2D40
:1012F000FD2D9501255F3F4F9D919193A217B30757
:10130000D9F706C0F5018381882351F381E0EDCF41
:101310000F90DF91CF911F910F91FF90EF90DF9091
:10132000CF90BF90AF90089508958CBD9DBD089556
:10133000FC01248131E03093BF022093E10210923E
:10134000C0021092E2028385682B80E893E00E943D
:101350005A040C948D0B0F931F93CF938C01C62FBF
:101360000E9498096C2F6460C8010E9498096C2F34
:101370006B7FC8010E94980983EC90E00197F1F718
:10138000CF911F910F910895FF920F931F93CF93C9
:10139000DF931F92CDB7DEB78C01F62E962F907F8C
:1013A000692F642BC80149830E94AB0980E1F89E34
:1013B000B00111244981642BC8010F90DF91CF91B6
:1013C0001F910F91FF900C94AB0941E00E94C4095A
:1013D00081E090E008951F920F920FB60F921124B2
:1013E0002F933F934F935F936F937F938F939F932D
:1013F000AF93BF93EF93FF938091B900887F8036BE
:1014000009F49CC068F5883209F45BC090F480311F
:1014100009F454C038F4882309F4F6C0883009F47C
:101420004DC0F6C0883109F44CC0803209F45DC06B
:10143000EFC0803409F468C048F4803309F455C023
:10144000883309F0E5C08093BC02D8C0803509F428
:101450004FC0883509F45DC0883409F0D9C0D6C0C2
:10146000883909F4C7C0A8F4883709F467C038F48C
:10147000883609F463C0803709F460C0C9C0883871
:1014800009F4B8C0803909F45FC0803809F0C0C0E1
:101490005BC0803B09F486C038F4803A09F466C02A
:1014A000883A09F47FC0B4C0803C09F4A7C0883CE6
:1014B00009F4A4C0883B09F48AC0AAC080919902AB
:1014C00010C09091BB028091BA02981770F5E0911C
:1014D000BB0281E08E0F8093BB02F0E0E656FD4F29
:1014E00080818093BB0085EC86C08093BC028EC057
:1014F000E091BB0281E08E0F8093BB028091BB0024
:10150000F0E0E656FD4F80839091BB028091BA02D5
:101510006EC0E091BB0281E08E0F8093BB02809190
:10152000BB00F0E0E656FD4F80838091BD02811143
:101530006DC081E08093980284EA61C083E080936B
:10154000BE0210923002CFCF80913002803208F07C
:1015500051C0E091300281E08E0F80933002809183
:10156000BB00F0E0E05FFD4F8083BDCF85EC809352
:10157000BC001092BE0280913002803230F4E091C3
:101580003002F0E0E05FFD4F10826091300270E0C9
:10159000E0910E02F0910F0280E192E00995109225
:1015A000300236C084E08093BE0210920D02109289
:1015B0000C02E0910A02F0910B02099580910C0255
:1015C000811105C081E080930C021092EA01E09144
:1015D0000D0281E08E0F80930D02F0E0E651FE4F88
:1015E00080818093BB0090910D0280910C0298172E
:1015F00008F479CF85E88093BC000AC085EC80931D
:10160000BC001092BE0204C01092BC020E94CC0327
:10161000FF91EF91BF91AF919F918F917F916F91CA
:101620005F914F913F912F910F900FBE0F901F90A0
:1016300018951092BE0281E08093BD02109298022C
:1016400061E082E10E944A0661E083E10E944A066D
:10165000E9EBF0E080818E7F808380818D7F8083C5
:1016600088E48093B80085E48093BC0008959F923D
:10167000AF92BF92CF92DF92EF92FF920F931F93A0
:10168000CF93DF9300D0CDB7DEB77C018B015A0139
:10169000FB01C480D58080E2982ECA14DB0474F468
:1016A00099821A8241E050E0BE016F5F7F4FC8010E
:1016B0000E94E904FFEFCF1ADF0AEFCFF701118292
:1016C00010821382128215821482F8018081918126
:1016D000F70191838083F80182819381F7019383DD
:1016E0008283F80184819581F70195838483F801D1
:1016F000118210821382128215821482C7010F9008
:101700000F90DF91CF911F910F91FF90EF90DF909D
:10171000CF90BF90AF909F9008952091E20290915A
:10172000E102213208F04AC08091BE028111FCCF53
:1017300032E03093BE0231E03093BD023FEF309390
:10174000BC021092BB022093BA02A1ECB2E04AE9BB
:1017500052E0FA013E2F341B321718F43D913193B9
:10176000F9CF1092990220919902990F922B9093A0
:10177000990290919802913061F4109298029091A0
:1017800099029093BB009091BC0093FDF8CF95EC2B
:1017900001C095EE9093BC009091BE029230E1F3AF
:1017A0009091BC029F3F79F08091BC02803241F061
:1017B0008091BC02803331F084E005C081E003C039
:1017C00082E001C083E01092C0021092E202109207
:1017D000BF020895AF92BF92CF92DF92EF92FF9235
:1017E0000F931F93CF93DF93EC018B018091B6038E
:1017F0009091B7030E94C9088823A1F1BE0180918E
:10180000B6039091B7030E94780840E06EEB809198
:10181000B6039091B7030E943608E801680189E099
:10182000C80ED11CA090B603B090B70388E0E82E94
:10183000F12C01E010E0C5010E94A5088111102BD8
:10184000000F81E0E81AF108B1F71993CC15DD0516
:1018500049F78091B6039091B7030E94C90891E0BF
:10186000813009F090E0892FDF91CF911F910F9186
:10187000FF90EF90DF90CF90BF90AF900895CF93FF
:10188000DF93CDB7DEB729970FB6F894DEBF0FBE52
:10189000CDBFFC012081203119F1BE016F5F7F4F68
:1018A0000E94EA0B882379F068E0CE0101960E943D
:1018B00029089985891307C008C0803458F08F35EE
:1018C00069F08F3769F080E00CC08D818F33A9F704
:1018D0008AE007C08F31B9F789E003C08BE001C00F
:1018E0008CE029960FB6F894DEBF0FBECDBFDF9116
:1018F000CF910895CF92DF92EF92FF920F931F93B3
:10190000CF93DF939091DE039F3F39F48EBD0000AB
:101910000DB407FEFDCF8EB544C0E82EC7E0D0E081
:10192000D12C01E010E0DD0C60E08091DE030E942C
:101930004A06B8010C2E01C0660F0A94EAF76E2120
:101940008091DC030E944A0661E08091DE030E94E0
:101950004A062091DD0330E0F901E251FD4F849108
:10196000F901E65DFC4FC490F901EA5EFC4FF4908A
:10197000FF2071F081110E942106EF2DF0E0EE0FA3
:10198000FF1FE45FFC4FA591B491EC91EC2129F489
:10199000219708F0C8CF8D2D04C08D2D8160D82EE1
:1019A000F7CFDF91CF911F910F91FF90EF90DF90D4
:1019B000CF9008959091BE029111FCCF613208F052
:1019C00060E291E09093BE029093BD022FEF2093CE
:1019D000BC021092BB02260F2093BA029093990288
:1019E00090919902880F892B809399028091980297
:1019F000813061F410929802809199028093BB002B
:101A00008091BC0083FDF8CF85EC01C085EE80930A
:101A1000BC008091BE028130E1F38091BB02861749
:101A200010F46091BB02AAE9B2E028E732E0F901C4
:101A30008E2F821B861718F48D918193F9CF109207
:101A4000770260937602862F0895CF93DF93C82F95
:101A50008091DB038F3F39F58091D20391E0909321
:101A6000BF028093E1021092C0021092E2026C2F3A
:101A700080E893E00E945A040E948D0B62E08091FE
:101A8000D2030E94DA0C80E893E00E940E04C82F73
:101A900080E893E00E940E0420E030E03C2FE90152
:101AA000C82BD92B29C08091DE038F3F21F482E51A
:101AB00091E00E94950960E08091DB030E944A0654
:101AC0008C2F80680E947A0C80E00E947A0CC82FCC
:101AD00080E00E947A0C2C2F30E0322F2227E9017F
:101AE000C82B61E08091DB030E944A068091DE03EF
:101AF0008F3F11F40E9494099C2F8D2FDF91CF917D
:101B000008958F929F92AF92BF92CF92DF92EF9201
:101B1000FF92CF93DF93A0910704882311F03A2F0F
:101B200001C030E08091080490E0880F991F845F25
:101B30009C4FC0900D04D0900E04E0900F04F090E4
:101B4000100440E050E0BA01FC01C591D491288115
:101B50002A2323130FC04A015B012FEF821A920A36
:101B6000A20AB20A4C155D056E057F0538F4B50171
:101B7000A401EACF342F252FCB0104C030E020E0B0
:101B800080E090E0632F722FDF91CF91FF90EF9074
:101B9000DF90CF90BF90AF909F908F900895CF929D
:101BA000DF92EF92FF92CF93C82F8091DB038F3F9C
:101BB00009F040C08091D20391E09093BF028093DE
:101BC000E1021092C0021092E2026C2F80E893E0D2
:101BD0000E945A040E948D0B63E08091D2030E9400
:101BE000DA0C80E893E00E940E046C01990FEE0875
:101BF000FF08FE2CED2CDC2CCC2480E893E00E9426
:101C00000E04AC01990F660B770BC42AD52AE62A7D
:101C1000F72AFE2CED2CDC2CCC2480E893E00E94EB
:101C20000E04AC01990F660B770BC42AD52AE62A5D
:101C3000F72A33C08091DE038F3F21F482E591E0E3
:101C40000E94950960E08091DB030E944A068C2F78
:101C500080680E947A0C80E00E947A0CC82ED12CF9
:101C6000E12CF12CFE2CED2CDC2CCC2480E00E940D
:101C70007A0CC82AFE2CED2CDC2CCC2480E00E94AF
:101C80007A0CC82A61E08091DB030E944A068091A9
:101C9000DE038F3F11F40E949409C701B601CF9172
:101CA000FF90EF90DF90CF9008958F929F92AF9228
:101CB000BF92CF92DF92EF92FF928AEF0E94CF0DF8
:101CC000E2EDF3E0458556854A01A12CB12CC72EE3
:101CD000D82EE92EFF24E7FCFA94C818D908EA08A0
:101CE000FB08DC01CB0137E0B595A7959795879563
:101CF0003A95D1F7B501A401440F551F661F771F10
:101D00004C015D01841A950AA60AB70AA50194013F
:101D1000A785B0890E94C9244B015C013BE0B594C2
:101D2000A794979487943A95D1F7A7019601C70194
:101D3000B6010E94A5249B01AC016CE05595479526
:101D4000379527956A95D1F7A189B2890E94C92450
:101D5000DC01CB017EE0B595A795979587957A959F
:101D6000D1F7A5019401280F391F4A1F5B1F258356
:101D7000368347835087A5E0B0E00E944A21DC010A
:101D8000CB0180589F4FAF4FBF4F692F7A2F8B2FBA
:101D9000992787FD9A950E942D2020E030E048EC9D
:101DA00052E40E940822FF90EF90DF90CF90BF9006
:101DB000AF909F908F9008952F923F924F925F9295
:101DC0006F927F928F929F92AF92BF92CF92DF924B
:101DD000EF92FF920F931F93CF93DF93CDB7DEB7B0
:101DE000A2970FB6F894DEBF0FBECDBF0E94550E6E
:101DF00087EF0E94CF0D6A8F7B8F8C8F9D8F809194
:101E0000D7039091D803A091D903B091DA036C0164
:101E10007D01FF0CCC08DC2C76019C01AD016C2D02
:101E20007C2D8C2D9C2D345F414051096109710935
:101E3000810991092AA339A349835A836B837C833F
:101E40008D839E8359016A017B018C010E94D124FC
:101E50002A8B3B8B4C8B5D8B6E8B7F8B888F998F06
:101E60008091EF038E8FE091F003EF83F091ED030B
:101E7000FF8F8091EE038887E091EB03E8A3F09158
:101E8000EC03F987B090E803A090E7031B2D110F36
:101E9000110BC12ED12EE12EF12E012F2AA139A135
:101EA00049815A816B817C818D819E810E94D124E0
:101EB0000CE00E94CA2519012A013B014C01B09097
:101EC000EA03A090E9031B2D110F110BC12ED12E97
:101ED000E12EF12E012F2A893B894C895D896E897B
:101EE0007F89888D998D0E94D12408E00E94E32586
:101EF00051016201730184010E94012670588F4FC5
:101F00009F4F2090E5033090E6035101C12CD12C66
:101F1000E12CF12C00E010E00E94D12401E20E94AB
:101F2000E3252A873B874C875D876E877F87888B71
:101F3000998BA0E00E94132609F45EC1AE8C1F812C
:101F4000110F110BBF80C12ED12EE12EF12E012FCA
:101F50002A893B894C895D896E897F89888D998D15
:101F60000E94D12419012A013B014C01AF8C188534
:101F7000110F110BB884C12ED12EE12EF12E012F9D
:101F80002AA139A149815A816B817C818D819E81F1
:101F90000E94D12401E10E94CA2559016A017B01F6
:101FA0008C019101A201B301C4010E940126190113
:101FB0002A013B014C014A8D5B8D6C8D7D8D84E047
:101FC00075956795579547958A95D1F780E090E08C
:101FD000A0E1B0E0841B950BA60BB70B6C017D0153
:101FE000FF0CCC08DC2C76019C01AD016C2D7C2D06
:101FF0008C2D9C2D0FE10E94CA25F901B42FA52F2D
:102000006C837D8389839A8328A19985990F990B85
:102010003985492F592F692F792F892F03E20E9483
:10202000CA2559016A017B018C019101A201B3010A
:10203000C4010E94012659016A017B018C019F01A4
:102040004B2F5A2F6C817D8189819A810E940A26AB
:102050004901542E652EB62FA72FF82FE92F03E044
:102060000E94CA255401C52CD62CEB2EFA2E0F2F18
:102070001E2F0E940A2659016A017B01782E192F12
:1020800003E00E94CA25072D0E940A2603E00E9451
:10209000CA255401C52CD62CEB2EFA2E0F2F1E2F3D
:1020A0000E940A2602E00E94CA250F2F0E940A26DB
:1020B00001E00E94CA250F2F0E940A26AA84BB8431
:1020C000CC84DD84EE84FF84088919890E942C2544
:1020D00028873F8349835A836B837C838D839E83C8
:1020E0000DE00E94E325922E832E742E652E562E2F
:1020F000472E382E292E3091F6032091F503932F89
:10210000990F990BA92CB82CC72CD62CE52CF42CA4
:10211000032D122D492F592F692F792F892F0E94B6
:10212000D1240E94D12409E10E94E32559016A01CA
:102130007B018C0128853F8149815A816B817C819B
:102140008D819E810E94012619012A013B014C01CB
:102150003091F4032091F303932F990F990BA884E6
:10216000BF80C980DA80EB80FC800D811E81492F01
:10217000592F692F792F892F0E94D12403E10E94C2
:10218000E32559016A017B018C019101A201B30190
:10219000C4010E94012608E00E94E325522E632E0E
:1021A000742E852E962EF72FE82FB92F3091F2033B
:1021B0002091F103932F990F990B492F592F692FD4
:1021C000792F892F04E00E94CA2559016A017B01F9
:1021D0008C01252D362D472D582D692D7F2F8E2FC3
:1021E0009B2F0E9401260E947A2220E030E040E8E6
:1021F0005BE30E948C2003C060E070E0CB01A296FC
:102200000FB6F894DEBF0FBECDBFDF91CF911F9107
:102210000F91FF90EF90DF90CF90BF90AF909F9085
:102220008F907F906F905F904F903F902F90089588
:10223000CF92DF92EF92FF920F931F93CF93DF9392
:10224000CDB7DEB7C054D1400FB6F894DEBF0FBE95
:10225000CDBF2FB7F89480911E0490911F04A091D8
:102260002004B09121042FBF4091090450910A0429
:1022700060910B0470910C048C019D01041B150BE3
:10228000260B370BB901A801403D57406105710588
:1022900018F480911104BCC08093090490930A043F
:1022A000A0930B04B0930C04109204041092030446
:1022B00010920204109201041092000461E08091D7
:1022C00005040E944A066AEF70E080E090E00E94F8
:1022D000150761E0809105040E947A0660E0809114
:1022E00005040E944A0664E170E080E090E00E94EC
:1022F0001507F89461E0809105040E944A068BE975
:1023000090E00197F1F762E0809105040E947A065F
:1023100083E290E00197F1F780E00E94810D672B46
:10232000682B692B21F41092110478943EC081E04F
:102330000E94810D672B682B692BA9F38E010F5F1B
:102340001F4F6E012FEBC21A2EEFD20A780180E0E8
:102350000E94810DF701608371838283938381E002
:102360000E94810DF7016483758386839783F8E06B
:10237000EF0EF11CEC14FD0451F7789420E030E0EE
:10238000F8014081518162817381C480D580E680EB
:10239000F780411551056105710529F0C114D1047B
:1023A000E104F10421F41092110480E031C0F9013C
:1023B00083E0F595E7958A95E1F7E050FC4F808141
:1023C000880F4C155D056E057F0508F481608083DC
:1023D0002F5F3F4F085F1F4F2832310589F620914C
:1023E000040430E0409100048091010490E0840FE7
:1023F000911D40910204840F911D40910304840FAC
:10240000911D99272817390771F681E080931104EF
:10241000C05CDE4F0FB6F894DEBF0FBECDBFDF91BC
:10242000CF911F910F91FF90EF90DF90CF90089583
:10243000CF93DF93CDB7DEB728970FB6F894DEBF02
:102440000FBECDBF98E0E5E6F1E0DE011196019008
:102450000D929A95E1F790911B04981710F48FEF65
:10246000890FFE013196E80FF11DE80FF11D608123
:10247000606840E082E194E028960FB6F894DEBFF1
:102480000FBECDBFDF91CF910C94C409009769F0C6
:10249000FC0101900020E9F73197AF01481B590B6F
:1024A000BC018CE893E00C94E90480E00895CF939C
:1024B000DF93CDB7DEB7C954D1090FB6F894DEBFAC
:1024C0000FBECDBF789484B5826084BD84B5816031
:1024D00084BD85B5826085BD85B5816085BD8091EF
:1024E0006E00816080936E00109281008091810067
:1024F000826080938100809181008160809381005F
:10250000809180008160809380008091B100846020
:102510008093B1008091B00081608093B000809181
:102520007A00846080937A0080917A008260809340
:102530007A0080917A00816080937A0080917A009D
:10254000806880937A001092C100E091F302F091CC
:10255000F40282E08083E091EF02F091F0021082B9
:10256000E091F102F091F2028FEC80831092FB0275
:10257000E091F702F091F80286E08083E091F502A5
:10258000F091F602808180618083E091F502F09104
:10259000F602808188608083E091F502F091F60276
:1025A000808180688083E091F502F091F60280815D
:1025B0008F7D808310927702109276021092C00273
:1025C0001092E2020E94190B1092170480911B04D2
:1025D000823018F098E09093170490911C0499238E
:1025E00039F0813029F480911704846080931704B6
:1025F00062E370E080E090E00E94150760911D04A6
:1026000082E194E00E94980968EE73E080E090E037
:102610000E94150760E382E194E00E94AB090BE49D
:1026200016E4C8010197F1F760E382E194E00E94AB
:10263000AB09C8010197F1F760E382E194E00E94E1
:10264000AB0983E592E00197F1F760E282E194E063
:102650000E94AB0960911704606240E082E194E05F
:102660000E94C40984E08093180440E06CE082E199
:1026700094E00E94C40940E061E082E194E00E949D
:10268000C4090BE31FE1C8010197F1F782E08093D1
:10269000190440E066E082E194E00E94C40940E051
:1026A00062E082E194E00E94C409C8010197F1F759
:1026B00062E0809105040E947A0680E398EFAFEF14
:1026C000BFEF8093090490930A04A0930B04B09386
:1026D0000C0486E78093D2038091DB038F3F59F48B
:1026E00010927702109276021092C0021092E202CB
:1026F0000E94190B4EC061E00E944A0661E0809181
:10270000DB030E947A068091DE038F3F09F034C01C
:102710001FB7F8948091C001811127C0E0E2F3E077
:102720008491E4E3F3E09491E82FF0E0EE0FFF1FD3
:10273000EC51FE4FA591B491EC91E92321F461E0B5
:102740008AE00E944A0661E08AE00E947A068CB51F
:1027500080618CBD8CB580648CBD61E08DE00E9491
:102760007A0661E08BE00E947A068091C0018F5F5B
:102770008093C0011FBF0DC061E00E947A0661E036
:102780008091DC030E947A0660E08091DD030E9464
:102790007A068091DB038F3FE9F48091D20391E0C8
:1027A0009093BF028093E1021092C0021092E20265
:1027B00060ED80E893E00E945A040E948D0B61E076
:1027C0008091D2030E94DA0C80E893E00E940E040C
:1027D000182F1FC08091DE038F3F21F482E591E026
:1027E0000E94950960E08091DB030E944A0680ED1B
:1027F0000E947A0C80E00E947A0C182F61E0809190
:10280000DB030E944A068091DE038F3F11F40E9491
:102810009409183509F08EC088E80E94250D909320
:10282000E0038093DF038AE80E94250D9093E20382
:102830008093E1038CE80E94250D9093E40380933C
:10284000E3038EE80E94250D9093E6038093E50351
:1028500080E90E94250D9093E8038093E70382E9C5
:102860000E94250D9093EA038093E90384E90E9476
:10287000250D9093EC038093EB0386E90E94250DD0
:102880009093EE038093ED0388E90E94250D9093C9
:10289000F0038093EF038AE90E94250D9093F203E1
:1028A0008093F1038CE90E94250D9093F4038093AB
:1028B000F3038EE90E94250D9093F6038093F503B0
:1028C0008091DB038F3FC1F48091D20391E090931C
:1028D000BF028093E1021092C0021092E20264EF04
:1028E00080E893E00E945A046FE380E893E00E943E
:1028F0005A040E948D0B1EC08091DE038F3F21F48D
:1029000082E591E00E94950960E08091DB030E94DE
:102910004A0684E70E947A0C8FE30E947A0C61E0F9
:102920008091DB030E944A068091DE038F3F11F401
:102930000E949409E091B603F091B70313861586BF
:102940001486DF011B9633961E92AE17BF07E1F780
:102950001092B50311E0BE016E5D7F4F8091B6030A
:102960009091B7030E94FF08882309F451C067E0E3
:10297000CE0182960E94290899A58913ECCF8091F7
:10298000B103811127C08091B6039091B7030E94D3
:10299000C908BE016E5D7F4F8091B6039091B70369
:1029A0000E94780840E064EB8091B6039091B703F1
:1029B0000E9436088091B6039091B7030E94A50843
:1029C000082F8091B6039091B7030E94C908002395
:1029D00009F4D4C6BE016F5F7F4FCE0182960E947C
:1029E000EA0B0091B203CE0182960E943F0C801741
:1029F00018F48091B20304C0CE0182960E943F0C6D
:102A00008093B2038091B5038F5F8093B503A3CF0A
:102A10001092AD031092AC031092AB031092AA0374
:102A20001092A9031092A8038DE991E09093AF034F
:102A30008093AE0390919E03963108F057C02DEB22
:102A400030E03093A9032093A8032BE931E03093C1
:102A5000AB032093AA032CE231E03093AD03209323
:102A6000AC0320916800983050F031E09E3008F4BB
:102A700030E081E001C0880F3A95EAF701C084E0B8
:102A8000822B80936800983038F09E3040F0963169
:102A900048F020E030E008C02DE630E005C02BE62D
:102AA00030E002C02CE630E03093A6032093A5036B
:102AB000983030F481E001C0880F9A95EAF70EC093
:102AC000292F30E09E3018F42850310902C02E50D2
:102AD000310981E001C0880F2A95EAF78093A703A6
:102AE0008091AE039091AF030197F1F78091AC0311
:102AF0009091AD03892B21F18091BE019091BF018E
:102B000023E082399207E1F0009711F00E94130848
:102B10008091B0038E7F8093B0031092BD0110921C
:102B2000BC0182E993E09093BF018093BE01E091E4
:102B3000A503F091A60390818091A703892B808340
:102B400061E089E00E947A0661E086E00E947A06F0
:102B500061E085E00E947A06609118046D7F6093C1
:102B60001804686040E082E194E00E94C40988E0B3
:102B700080931D0460E082E194E00E949809E1ECFA
:102B80002E2EE1E03E2E8091E8019091E901892B03
:102B900009F0D9C30E9418118823B1F1809106046D
:102BA0008B3041F188F18551823070F560910004DD
:102BB00070E080E090E00E942B2020E030E040E8D0
:102BC00053E40E948C206B017C0180910104682FEA
:102BD00070E080E090E00E942D209B01AC01C701D5
:102BE000B6010E949C212DEC3CEC4CEC5DE30E9474
:102BF0008C2007C06091000470E080E090E00E94AB
:102C00002B206B017C0106C0C12CD12C70ECE72E6F
:102C10007FE7F72EC092DA01D092DB01E092DC016F
:102C2000F092DD010E9418118823C9F180910604F9
:102C30008B3029F0A0F18551823048F030C060918E
:102C4000020470E080E090E00E942B202CC01091E4
:102C50000204612F6F7770E080E090E00E942D20E9
:102C600020E030E040E853E40E948C204B015C01FE
:102C70006091030470E080E090E00E942D209B01B1
:102C8000AC01C501B4010E949C212DEC3CEC4CEC44
:102C90005DE30E948C2017FF06C0905804C060E0DE
:102CA00070E080EC9FE76093DE017093DF0180931A
:102CB000E0019093E10126E636E646EE5FE30E94EE
:102CC0008C2020E030E040E052E40E949C214B0147
:102CD0005C0120E030E044E752E40E949C212B019B
:102CE0003C0120E030E048E852E4C501B4010E9414
:102CF0009B212AE939E949E95FE30E948C209B0185
:102D0000AC01C301B2010E949C212B013C0122E1D4
:102D100033E840EC5DE3C701B6010E948C209B01C3
:102D2000AC01C301B2010E949C2120E030E040E0F0
:102D30005FE30E948C202B013C0120E030E04EE953
:102D400052E40E94CE2218160CF071C1A501940124
:102D5000C501B4010E948C2026966CAF7DAF8EAF6A
:102D60009FAF2697A7019601C701B6010E948C204C
:102D70002A966CAF7DAF8EAF9FAF2A9721E133E2E9
:102D800043E050E4C501B4010E948C2029E134E8FD
:102D900049E252E40E949B212B013C0126E13BE4E5
:102DA00042E251E4C701B6010E948C209B01AC01B4
:102DB000C301B2010E949C212B013C0128E436E2B0
:102DC00046E65EEBC501B4010E948C20A701960186
:102DD0000E948C209B01AC01C301B2010E949C2186
:102DE0002B013C0120EE3FE040EE5BEB26966CAD04
:102DF0007DAD8EAD9FAD26970E948C209B01AC01CE
:102E0000C301B2010E949C212B013C0128EF37E84D
:102E100040E65DEB2A966CAD7DAD8EAD9FAD2A97F9
:102E20000E948C209B01AC01C301B2010E949C2135
:102E30002B013C012CEA3DE041EA5AE326966CADB9
:102E40007DAD8EAD9FAD26970E948C20A701960187
:102E50000E948C209B01AC01C301B2010E949C2105
:102E60002B013C0128EC3FE84FE55AE3C501B401D2
:102E70000E948C202A962CAD3DAD4EAD5FAD2A97B9
:102E80000E948C209B01AC01C301B2010E949C21D5
:102E90002B013C0121EF3BE845E056EB26966CAD5B
:102EA0007DAD8EAD9FAD26970E948C202A962CADCD
:102EB0003DAD4EAD5FAD2A970E948C209B01AC01C9
:102EC000C301B2010E949C212B013C0120E030E0B3
:102ED00040E551E4C701B6010E94262087FF5CC08F
:102EE00020E030E040EA52E4C501B4010E94CE2265
:102EF00087FD52C020E030E040EE52E4C501B4014D
:102F00000E94262018160CF43CC4A701960160E02C
:102F100070E080E591E40E949B2120E030E040E8F1
:102F20005EE30E948C206B017C0120E030E04EEBE0
:102F300052E4C501B4010E949B214B015C0120E0D9
:102F400030E0A9010E94CE2218164CF4A50194018C
:102F500060E070E088E891E40E949B2108C020E0D6
:102F600030E048E851E4C501B4010E949C212EE301
:102F70003DEE40E75DE30E948C200E9429239B01E7
:102F8000AC01C701B6010E948C209B01AC01C301BA
:102F9000B2010E949B2149C020E030E04AEA52E49D
:102FA000C701B6010E94CE2218160CF040C020E0E6
:102FB00030E040EA52E4C501B4010E94CE2287FD10
:102FC00036C020E030E04EEA52E4C501B4010E9470
:102FD0002620181664F120E030E04AEA52E4C701E6
:102FE000B6010E949B212DEC3CEC4CEC5DE30E9471
:102FF0008C206B017C01A501940160E070E08EEAF9
:1030000092E40E949B212DEC3CEC4CE45EE30E9498
:103010008C209B01AC01C701B6010E948C209B0152
:10302000AC01C301B2010E949C212B013C0120E0B4
:1030300030E040E052E4C301B2010E949B2126E847
:1030400038E34EE05FE30E948C206093D2017093DE
:10305000D3018093D4019093D5010E94550E6093C3
:10306000CE017093CF018093D0019093D1010E9443
:10307000DC0E6093D6017093D7018093D8019093B2
:10308000D9010E94DC0E20E030E048EC52E40E94BE
:10309000082220E030E54DE754E40E94082221E0B8
:1030A0003EED42E45EE30E94D3229B01AC0160E06E
:1030B00070E080E89FE30E949B2120E03AE24DE22D
:1030C00057E40E948C206093CA017093CB018093D7
:1030D000CC019093CD018091B6039091B7030E94EB
:1030E000C90840E06CEC8091B6039091B7030E9450
:1030F00036084091B10364E48091B6039091B70320
:103100000E9436088091B3038823A9F0E091B203AE
:10311000E950E33040F4F0E0EE0FFF1FEF5EFE4FAA
:103120006081718102C06EEE72E0072E000C880B88
:10313000990B0E941507E091B603F091B70313862F
:1031400015861486DF011B96CF0103961E92A817E1
:10315000B907E1F7BE016E5D7F4FCF010E94FF0806
:10316000882349F067E0CE0182960E94290899A53C
:10317000891709F412C360E070E08EEF92EC60935F
:10318000E2017093E3018093E4019093E50149E04B
:1031900050E060E071E082E993E00E94CB01F10130
:1031A00029E011922A95E9F701EC11E02FB7F89484
:1031B00080911E0490911F04A0912004B0912104DD
:1031C0002FBF80939A0390939B03A0939C03B0938B
:1031D0009D03E0919203F09193030284F385E02D27
:1031E00082E993E0099597FD0BC0F80181938F0167
:1031F000F1E00A3C1F07D1F6E2ECF1E080E025C0E7
:103200002FB7F89480911E0490911F04A091200480
:10321000B09121042FBF40919A0350919B0360917C
:103220009C0370919D03841B950BA60BB70B4091DB
:1032300096035091970360919803709199038417B6
:103240009507A607B70728F2D7CF9191890F21E0FC
:10325000E93CF207D1F7F82EF1949091C1018091E9
:10326000C9019F3F39F49091C201963819F48F1526
:1032700009F45BC01BA21AA21DA21CA21FA21EA2BF
:103280004AE0BE016F5F7F4F90E00E94961DBE0135
:103290006F5F7F4FCE0182960E9443051BA61AA640
:1032A0001DA61CA61FA61EA64AE0BE016F5F7F4F8B
:1032B0008F2D90E00E94961DBE016F5F7F4FCE0163
:1032C0008A960E9443056DE671E0CE0101960E9448
:1032D000A605BE01665D7F4FCE0101960E943005B6
:1032E00069E771E00E941705BE016E5D7F4F0E9485
:1032F0003005BC0183EE92E00E94BB0542E050E045
:103300006DE771E083EE92E00E94CB01CE01019661
:103310000E947105CE018A960E947105CE018296A7
:103320000E94710580E090E009C08091C30190E0A7
:10333000982F88272091C401820F911D9093E70157
:103340008093E60106C068EE73E080E090E00E94A2
:1033500015078091E8019091E9018530910534F4D9
:1033600001969093E9018093E80104C01092E9016D
:103370001092E8018091090190910A01181619062E
:10338000DCF51BA21AA21DA21CA21FA21EA24AE0CB
:10339000BE016F5F7F4F0E948B1DBE016F5F7F4F2D
:1033A000CE0182960E94430560E871E0CE0101964D
:1033B0000E94A605BE016E5D7F4FCE0101960E9460
:1033C00030056EE871E00E941705BC018CE893E0BF
:1033D0000E945A05CE0101960E947105CE01829687
:1033E0000E9471058091090190910A0101979093C3
:1033F0000A01809309018EC08091E6019091E70156
:103400001BA21AA21DA21CA21FA21EA24AE0BE015C
:103410006F5F7F4F0E948B1DBE016F5F7F4FCE019C
:1034200082960E94430548E050E0BE016E5D7F4FEA
:10343000CE0101960E94370B61E971E0CE018A96B8
:103440000E94A605BE016F5F7F4FCE018A960E9443
:103450003005BC018CE893E00E945A05CE018A96A3
:103460000E947105CE0101960E947105CE018296DF
:103470000E9471058091E6019091E701803243E05E
:1034800094078CF487E991E00E94461260E070E0B6
:1034900089E00E94B60660E070E086E00E94B60611
:1034A00068EC70E034C0803B54E095078CF48CE904
:1034B00091E00E94461260E070E089E00E94B6064A
:1034C00068EC70E086E00E94B60662E370E01FC020
:1034D000803D974064F481EA91E00E94461264E6E0
:1034E00070E089E00E94B60668EC70E00BC085EAE7
:1034F00091E00E94461268EC70E089E00E94B606F6
:1035000060E070E086E00E94B60660E070E085E072
:103510000E94B60680E00E9418121BA21AA21DA2E9
:103520001CA21FA21EA26CE873E0CE0182960E942C
:103530005A0544E150E0BE016E5D7F4FCE01019619
:103540000E94370BBE016F5F7F4F82E194E00E94C3
:10355000BB05CE0101960E947105CE0182960E94A4
:10356000710581E00E9418124091E2015091E3013F
:103570006091E4017091E50122E0CE018A960E94FB
:1035800076054091DE015091DF016091E00170917C
:10359000E10122E0CE01C6960E94760548E050E0A7
:1035A000BE016A5C7F4FCE01C0960E94370B6AEA6B
:1035B00071E0CE01CC960E94A605BE01605D7F4FF2
:1035C000CE01CC960E943005BE01665D7F4F0E9401
:1035D00030051BA21AA21DA21CA21FA21EA2BC0182
:1035E000CE0182960E945A0544E150E0BE016E5D14
:1035F0007F4FCE0101960E94370BBE016F5F7F4F58
:1036000082E194E00E94BB05CE0101960E94710503
:10361000CE0182960E947105CE01CC960E94710562
:10362000CE01C0960E947105CE01C6960E9471051A
:10363000CE018A960E94710582E00E941812409184
:10364000DA015091DB016091DC017091DD0122E033
:10365000CE018A960E94760560EB71E0CE01C0969D
:103660000E94A605BE01665D7F4FCE01C0960E94F6
:1036700030051BA21AA21DA21CA21FA21EA2BC01E1
:10368000CE0182960E945A0544E150E0BE016E5D73
:103690007F4FCE0101960E94370BBE016F5F7F4FB7
:1036A00082E194E00E94BB05CE0101960E94710563
:1036B000CE0182960E947105CE01C0960E947105CE
:1036C000CE018A960E94710583E00E9418122FE8AD
:1036D00032EC45EF5BE36091D6017091D7018091A8
:1036E000D8019091D9010E948C201BA61AA61DA674
:1036F0001CA61FA61EA68E010F5F1F4F22E044E0EE
:103700000E946B1DBC01CE018A960E94430566EBA8
:1037100071E0CE01C0960E94A605BE01665D7F4F96
:10372000CE01C0960E9430051BA21AA21DA21CA2A7
:103730001FA21EA2BC01CE0182960E945A0544E13E
:1037400050E0BE016E5D7F4FC8010E94370BB8018B
:1037500082E194E00E94BB05C8010E947105CE0180
:1037600082960E947105CE01C0960E947105CE011D
:103770008A960E9471050E94C70205CA1093B10380
:1037800029C920E030E04AEA52E4C701B6010E94AC
:10379000CE2218160CF415CC4ACCBE016F5F7F4FB9
:1037A000CE0182960E94EA0B882309F446C068E0A5
:1037B000CE0101960E942908998589133EC069812E
:1037C000F8E06F9FB00111248A81282F30E0322F5A
:1037D0002227330F330F330F262B372B8AA180314B
:1037E00051F5688570E08F81AB01481B5109CA0112
:1037F0009695982F8827979587950E94B5246051B4
:103800007109207F53E0220F331F5A95E1F7620FB1
:10381000731F613854EE75070CF4ADCC072E000C05
:10382000880B990B0E942D2020E030E040E05CE303
:103830000E948C20A4CCB901ECCF60E874EEE9CFF3
:103840008CE893E00E9471058FE391E090939303DD
:103850008093920382E993E00C9413081092E6029D
:103860001092E50288EE93E0A0E0B0E08093E702DA
:103870009093E802A093E902B093EA022BE131E0D1
:103880003093E4022093E30225EC30E03093F00221
:103890002093EF0224EC30E03093F2022093F10207
:1038A00020EC30E03093F4022093F30221EC30E07E
:1038B0003093F6022093F50222EC30E03093F802C8
:1038C0002093F70226EC30E03093FA022093F902BD
:1038D0001092FC021092FD021092FE021092FF0262
:1038E0001092830310928203809384039093850344
:1038F000A0938603B09387038DE291E090938103B8
:1039000080938003109215041092140481E591E0D5
:1039100090931304809312048FE38093160484E140
:1039200080931A0484E080931B0410921C0488E0A6
:1039300080931D048093050486E180930604E2E3EE
:10394000F3E0E491E0930704EEE1F3E0E491E09327
:10395000080480E89EE3A0E0B0E080930D0490931B
:103960000E04A0930F04B09310048FEF8093DB0339
:103970008093DC038093DD038093DE0360E084E0CA
:103980000E947A06EEE2F3E0E491E093C403EAE1F8
:10399000F3E0E491F0E0EE0FFF1FE45FFC4F859150
:1039A00094919093C6038093C5031092CF03109215
:1039B000D1031092D003EFECF3E0129283E0E73CE6
:1039C000F807D9F78CE993E09093C3038093C2037F
:1039D00084EC93E09093B7038093B6031092B50301
:1039E0001092B10389E08093B20361E06093B30366
:1039F0006093B403109295031092940388EE93E0C1
:103A0000A0E0B0E08093960390939703A09398036F
:103A1000B09399038FE391E0909393038093920383
:103A20001092A9031092A8031092AB031092AA035C
:103A30001092AD031092AC031092AF031092AE033C
:103A40008091B0038E7F8D7F8093B00386958170C7
:103A500068278AE00E944A0661E08AE00E947A06AE
:103A6000E4E3F3E0E491E093A203E0E2F3E0E49125
:103A7000F0E0EE0FFF1FEE5FFC4F85919491909365
:103A8000A4038093A30360E08BE00E947A068091F8
:103A9000B00381FD04C061E08BE00E944A068BE028
:103AA00080939E03E5E3F3E0E491E0939F03E1E27A
:103AB000F3E0E491F0E0EE0FFF1FE45FFC4F85912F
:103AC00094919093A1038093A0036FE771E08CE839
:103AD00093E00C94A605EF920F931F93CF93DF937F
:103AE000E80147FD02C034E001C034E1E42F440F97
:103AF000FF0BF7FF03C0F195E195F109E32E022FCB
:103B00002E2FAE010E94B01DCE01DF91CF911F91EB
:103B10000F91EF900895BB274A3031F4992322F496
:103B2000BDE2909581959F4F0C94971DBB27FB019B
:103B30005527AA27880F991FAA1FA41710F0A41BA6
:103B400083955051B9F7A05DAA3308F0A95DA19300
:103B5000009779F7B111B1931192CB010C94162013
:103B60004F925F926F927F929F92AF92BF92CF924D
:103B7000DF92EF92FF920F931F93CF93DF93CDB716
:103B8000DEB729970FB6F894DEBF0FBECDBF6A012E
:103B9000122FB02E2BE3201720F0FF24F394F00E09
:103BA00002C0BCE3FB2E0F2D27E0AE014F5F5F4F3D
:103BB0000E943E1FAC018981982F9970913031F09D
:103BC000E1FC06C0E0FE06C090E205C09DE203C035
:103BD0009BE201C090E0EE2DE07183FF3CC09111AB
:103BE00002C083E001C084E0811718F4212F281B54
:103BF00001C020E0E1110BC0F601822F30E28823E2
:103C000019F031938150FBCFC20ED11C20E09923D3
:103C100029F0D6019C93F60131966F01C6010396F7
:103C2000E2FE0AC03EE4D6013C9341E411964C9377
:103C3000119712963C9306C03EE6F601308341E6AA
:103C400041833283FC01322F40E2332309F442C026
:103C500041933150FACF82FF44C0911102C083E0FA
:103C600001C084E0811718F4212F281B01C020E037
:103C7000E1110BC0F601822F30E2882319F0319355
:103C80008150FBCFC20ED11C20E0992329F0D60130
:103C90009C93F60131966F01C6010396E2FE0BC0BC
:103CA00039E4D6013C933EE411963C93119736E4F7
:103CB00012963C9307C039E6F60130833EE6318325
:103CC00036E63283FC01322F40E2332319F0419370
:103CD0003150FBCFFC01E20FF11D10828EEF9FEF00
:103CE000B7C0F1E0911101C0F0E06F2F70E0141641
:103CF000150624F49A012F5F3F4F02C021E030E007
:103D0000260F371FBB2029F06B2D70E06F5F7F4FB0
:103D100002C060E070E0260F371F612F70E02617A9
:103D200037071CF4121B212F01C020E03E2D3871F3
:103D300059F4D601322F60E2332319F06D933150DC
:103D4000FBCFC20ED11C20E0FF2331F0D6019C93A3
:103D5000B6016F5F7F4F6B01E1110BC0F601922F2F
:103D600030E3992319F031939150FBCFC20ED11C4F
:103D700020E09F2D940F3A81782F7071A72E84FF39
:103D800003C0313309F49150191624F4993018F016
:103D900098E001C091E0E42F852F57FF02C0E0E0DA
:103DA00080E06E2F782FE0E0F0E0AEE29A2E3A014C
:103DB000691A71082A01461A570A0B2D10E011954D
:103DC000019511096F3F8FEF780729F4D6019C9276
:103DD000C60101966C014617570784F066167706F0
:103DE0006CF47F01E40CF51CA1E0B0E0AC0FBD1F4A
:103DF000EA0EFB1ED7011196BC9002C090E3B92ECB
:103E0000615071093196C60101967C0160177107F6
:103E100024F0D601BC926C01D5CF6417750741F42C
:103E2000363320F4353321F4A11002C081E3B82EDB
:103E3000F601B082F701822F90E2882319F0919366
:103E40008150FBCFF701E20FF11D108280E090E07E
:103E500029960FB6F894DEBF0FBECDBFDF91CF918C
:103E60001F910F91FF90EF90DF90CF90BF90AF9098
:103E70009F907F906F905F904F900895283008F04A
:103E800027E03327DA01990F311D87FD91600096F5
:103E90006105710539F432602E5F3D9330E32A9558
:103EA000E1F708959F3F30F080387105610509F012
:103EB0003C5F3C5F3D93913008F08068911DDF933B
:103EC000CF931F930F93FF92EF92192F987F9695A0
:103ED000E92F96959695E90FFF27EC5BFE4F992702
:103EE0003327EE24FF24A701E701059008940794E7
:103EF00028F4360FE71EF81E491F511D660F771F65
:103F0000881F991F0694A1F70590079428F4E70EDF
:103F1000F81E491F561FC11D770F881F991F661F66
:103F20000694A1F70590079428F4F80E491F561F30
:103F3000C71FD11D880F991F661F771F0694A1F711
:103F40000590079420F4490F561FC71FD81F990FDB
:103F5000661F771F881F0694A9F784911095177024
:103F600041F0D695C79557954795F794E7941A95DC
:103F7000C1F7EAEEF0E068941590159135916591DE
:103F8000959105907FE27395E118F10A430B560B6A
:103F9000C90BD009C0F7E10CF11E431F561FC91F02
:103FA000D01D7EF4703311F48A95E6CFE894015069
:103FB00030F0080F0AF40027021708F4202F239589
:103FC000022F7A3328F079E37D932A95E9F710C020
:103FD0007D932A9589F60694979567953795179559
:103FE0001794E118F10A430B560BC90BD00998F04E
:103FF00023957E9173957A3308F070E37C932013B8
:10400000B8F77E9170617D9330F0839571E37D9375
:1040100070E32A95E1F71124EF90FF900F911F9123
:10402000CF91DF91992787FD90950895DC01FC01E0
:10403000672F71917723E1F7329704C07C916D93DC
:1040400070836291AE17BF07C8F308950E9468207D
:1040500008F481E00895E89409C097FB3EF4909538
:104060008095709561957F4F8F4F9F4F9923A9F051
:10407000F92F96E9BB279395F695879577956795E0
:10408000B795F111F8CFFAF4BB0F11F460FF1BC024
:104090006F5F7F4F8F4F9F4F16C0882311F096E9B7
:1040A00011C0772321F09EE8872F762F05C0662365
:1040B00071F096E8862F70E060E02AF09A95660F1E
:1040C000771F881FDAF7880F9695879597F90895D7
:1040D000990F0008550FAA0BE0E8FEEF1616170619
:1040E000E807F907C0F012161306E407F50798F081
:1040F000621B730B840B950B39F40A2661F0232B9A
:10410000242B252B21F408950A2609F4A140A69515
:104110008FEF811D811D08950E949F200C94102116
:104120000E94022138F00E94092120F0952311F00D
:104130000C94F9200C94FF2011240C9444210E942B
:10414000212170F3959FC1F3950F50E0551F629F99
:10415000F001729FBB27F00DB11D639FAA27F00DE0
:10416000B11DAA1F649F6627B00DA11D661F829F07
:104170002227B00DA11D621F739FB00DA11D621FEC
:10418000839FA00D611D221F749F3327A00D611D09
:10419000231F849F600D211D822F762F6A2F1124EB
:1041A0009F5750409AF0F1F088234AF0EE0FFF1F1E
:1041B000BB1F661F771F881F91505040A9F79E3F75
:1041C000510580F00C94F9200C9444215F3FE4F3F6
:1041D000983ED4F3869577956795B795F795E795CB
:1041E0009F5FC1F7FE2B880F911D9695879597F9D4
:1041F000089597F99F6780E870E060E008959FEF69
:1042000080EC089500240A9416161706180609066D
:10421000089500240A94121613061406050608953C
:10422000092E0394000C11F4882352F0BB0F40F4C4
:10423000BF2B11F460FF04C06F5F7F4F8F4F9F4F04
:10424000089557FD9058440F551F59F05F3F71F086
:104250004795880F97FB991F61F09F3F79F08795ED
:104260000895121613061406551FF2CF4695F1DF76
:1042700008C0161617061806991FF1CF8695710506
:10428000610508940895E894BB2766277727CB013A
:1042900097F908950E948C21A59F900DB49F900DD1
:1042A000A49F800D911D112408952F923F924F924B
:1042B0005F926F927F928F929F92AF92BF92CF92B6
:1042C000DF92EF92FF920F931F93CF93DF93CDB7BF
:1042D000DEB7CA1BDB0B0FB6F894DEBF0FBECDBF37
:1042E00009942A88398848885F846E847D848C8408
:1042F0009B84AA84B984C884DF80EE80FD800C8111
:104300001B81AA81B981CE0FD11D0FB6F894DEBFF3
:104310000FBECDBFED010895A29FB001B39FC001B4
:10432000A39F700D811D1124911DB29F700D811DE1
:104330001124911D08955058BB27AA270E94B3212C
:104340000C9410210E94022138F00E94092120F0D3
:1043500039F49F3F19F426F40C94FF200EF4E095F5
:10436000E7FB0C94F920E92F0E94212158F3BA179A
:10437000620773078407950720F079F4A6F50C947B
:1043800043210EF4E0950B2EBA2FA02D0B01B9019D
:1043900090010C01CA01A0011124FF27591B99F0BB
:1043A000593F50F4503E68F11A16F040A22F232FC7
:1043B000342F4427585FF3CF469537952795A79517
:1043C000F0405395C9F77EF41F16BA0B620B730BBE
:1043D000840BBAF09150A1F0FF0FBB1F661F771F2F
:1043E000881FC2F70EC0BA0F621F731F841F48F4E4
:1043F000879577956795B795F7959E3F08F0B0CF6D
:104400009395880F08F09927EE0F97958795089553
:104410000E941C220C9410210E94092158F00E9435
:10442000022140F029F45F3F29F00C94F92051114A
:104430000C9444210C94FF200E94212168F39923BD
:10444000B1F3552391F3951B550BBB27AA27621790
:104450007307840738F09F5F5F4F220F331F441F9D
:10446000AA1FA9F335D00E2E3AF0E0E832D09150D1
:104470005040E695001CCAF72BD0FE2F29D0660FBE
:10448000771F881FBB1F261737074807AB07B0E801
:1044900009F0BB0B802DBF01FF2793585F4F3AF007
:1044A0009E3F510578F00C94F9200C9444215F3F15
:1044B000E4F3983ED4F3869577956795B795F7958D
:1044C0009F5FC9F7880F911D9695879597F9089575
:1044D000E1E0660F771F881FBB1F62177307840711
:1044E000BA0720F0621B730B840BBA0BEE1F88F720
:1044F000E095089597FB16F40E94BE220C94812249
:10450000E894F92F96EBFF2381F012161306140698
:10451000440B9395F6958795779567955795404009
:10452000FF23B9F71BC099270895882351F49850A9
:10453000D2F7872B762F652F542F432F322F20E071
:10454000B1F3121613061406440B88233AF09A9519
:10455000440F551F661F771F881FCAF755234AF45B
:10456000440F551F11F460FF04C06F5F7F4F8F4FE2
:104570009F4F880F9695879597F908959095809508
:104580007095609550954095309521953F4F4F4FD0
:104590005F4F6F4F7F4F8F4F9F4F08950E9468204E
:1045A00008F48FEF0895FA01EE0FFF1F30962105F2
:1045B0003105A1F16115710561F48038BFE39B07F6
:1045C00049F168949038810561F08038BFEF9B070E
:1045D00041F099234AF5FF3FE1053105210519F125
:1045E000E8940894E795D901AA2329F4AB2FBE2FAC
:1045F000F85FD0F310C0FF5F70F4A695E0F7F739CD
:1046000050F019F0FF3A38F49F779F930DD00F9038
:1046100007FC9058089546F00C94FF2060E070E08D
:1046200080E89FE308954FE79F775F934F933F9311
:104630002F930E9429242F913F914F915F910E94C7
:104640008C200C94712319F416F40C94FF200C9414
:10465000A3230E942921B8F39923C9F3B6F39F57E6
:10466000550B87FF0E94B1230024A0E640EA900189
:1046700080585695979528F4805C660F771F881FA1
:1046800020F026173707480730F4621B730B840BA2
:10469000202931294A2BA6951794079420253125E6
:1046A0004A2758F7660F771F881F20F0261737070D
:1046B000480730F4620B730B840B200D311D411D34
:1046C000A09581F7B901842F9158880F9695879509
:1046D000089529F416F00C94F9200C9443210C94BD
:1046E000FF200E942921A8F39638A0F707F80F921F
:1046F000E8942BE33AEA48EB5FE70E94A2200F928E
:104700000F920F924DB75EB70F920E947124E8E6A8
:10471000F0E00E94B8234F915F91EF91FF91E595F2
:10472000EE1FFF1F49F0FE57E0684427EE0F441FBD
:10473000FA95E1F74195550B0E94EB230F9007FE88
:104740000C94DF2308959F3F31F0915020F487951A
:1047500077956795B795880F911D9695879597F9E9
:10476000089591505040660F771F881FD2F7089523
:10477000DF93CF931F930F93FF92EF92DF927B0112
:104780008C01689406C0DA2EEF010E949F20FE0182
:10479000E894A5912591359145915591A6F3EF01A6
:1047A0000E94B321FE019701A801DA9469F7DF9016
:1047B000EF90FF900F911F91CF91DF9108959B0192
:1047C000AC0160E070E080E89FE30C9408220C9458
:1047D000F9200C94A3230E942921D8F39923C9F32B
:1047E000940F511DA3F39150504094F059F0882339
:1047F00032F0660F771F881F91505040C1F79E3FDF
:1048000051052CF7880F911D9695879597F9089576
:104810005F3FACF0983E9CF0BB27869577956795F7
:10482000B79508F4B1609395C1F7BB0F58F711F431
:1048300060FFE8CF6F5F7F4F8F4F9F4FE3CF0C94A8
:10484000442116F00C94A3230C94FF2068940C943C
:10485000F9200E942921A8F39923C1F3AEF3DF9335
:10486000CF931F930F93FF92C92FDD2788232AF040
:104870002197660F771F881FDAF720E030E040E8C5
:104880005FEB9FE3883920F0803E38F021968F77E8
:104890000E949C21E0E9F0E004C00E949C21EDEB25
:1048A000F0E00E94B8238B01BE01EC01FB2E6F5794
:1048B00071097595771F880B990B0E942D2028E1AF
:1048C00032E741E35FE30E949F20AF2D9801AE01E4
:1048D000FF900F911F91CF91DF910E94B3210C9413
:1048E0001021FA01DC01AA0FBB1F9B01AC01BF57CD
:1048F00028F4222733274427507820C0B75190F45A
:10490000AB2F0024469537952795011CA395D2F32C
:10491000002071F0220F331F441FB395DAF30ED03D
:104920000C949B2161307105A0E88A07B94630F4E8
:104930009B01AC016627772788279078309621F075
:1049400020833183428353830895DB018F939F93A8
:104950000E944A21BF91AF91A29F800D911DA39FFC
:10496000900DB29F900D1124089597FB072E16F419
:10497000009407D077FD09D00E941F2607FC05D0C0
:104980003EF4909581959F4F0895709561957F4F66
:104990000895B7FF0C944A210E944A21821B930B71
:1049A0000895DF93CF931F930F939A9DF02D219F2E
:1049B000F00D8B9DF00D8A9DE02DF10D039FF00D04
:1049C000029FE00DF11D4E9DE00DF11D5E9DF00D6D
:1049D0004F9DF00D7F936F93BF92AF925F934F9374
:1049E000D5010E948C218B01AC01D7010E948C2142
:1049F000EB01E80FF91FD6010E9421252F913F916D
:104A0000D6010E948C21C60FD71FE81FF91FAF9156
:104A1000BF910E9421252F913F910E948C21C60FAA
:104A2000D71FE81FF91FD6010E948C21E60FF71F40
:104A30009801BE01CF0111240F911F91CF91DF91F9
:104A400008950E948C21460F571FC81FD91F08F4D4
:104A500031960895689401C0E894F92FF12B12F073
:104A60000C945E25A0E0B0E0E8E3F5E20C945B2155
:104A7000092E059422F40E94BA25112392F4F0E83D
:104A80000F26FFEFE094F09400951095B094C09439
:104A9000D094A194BF0ACF0ADF0AEF0AFF0A0F0BD6
:104AA0001F0B0E94692507FC0E94BA25CDB7DEB70F
:104AB000ECE00C947721689401C0E8948F929F9267
:104AC000CF93DF930E946925DF91CF919F908F90C4
:104AD000089588249924F401E401B0E49F93AA275F
:104AE0009A158B049C04ED05FE05CF05D007A107A0
:104AF00098F4AD2FDC2FCF2FFE2FE92D982C892E87
:104B0000982F872F762F652F542F432F322F222750
:104B1000B85031F7BF9127C01B2EBF91BB27220F82
:104B2000331F441F551F661F771F881F991F881C3E
:104B3000991CEE1FFF1FCC1FDD1FAA1FBB1F8A146D
:104B40009B04EC05FD05CE05DF05A007B10748F085
:104B50008A189B08EC09FD09CE09DF09A00BB10BEF
:104B600021601A94E1F62EF49401AF01BE01CD014B
:104B7000000C0895609570958095909530954095BE
:104B8000509521953F4F4F4F5F4F6F4F7F4F8F4F46
:104B90009F4F08950F93083090F0982F872F762F0E
:104BA000652F542F432F322F22270850F4CF220F86
:104BB000331F441F551F661F771F881F991F0A95B3
:104BC000B2F70F91089597FB10F8169400080F9311
:104BD000083098F00850232F342F452F562F672F79
:104BE000782F892F902DF4CF0594979587957795F9
:104BF000679557954795379527950A95AAF70F9189
:104C000008952A0D3B1D4C1D5D1D6E1D7F1D801FCF
:104C1000911F08952A193B094C095D096E097F0906
:104C2000800B910B08950024A7FD00942A173005EE
:104C30004005500560057005800590050895AA1B84
:104C4000BB1B51E107C0AA1FBB1FA617B70710F077
:104C5000A61BB70B881F991F5A95A9F780959095A9
:104C6000BC01CD010895EE0FFF1F0590F491E02DDA
:104C70000994CF93DF938230910510F482E090E0A5
:104C8000E0912404F091250420E030E0C0E0D0E081
:104C9000309711F14081518148175907C0F04817EA
:104CA000590761F482819381209719F09B838A834D
:104CB0002BC0909325048093240426C02115310530
:104CC00019F04217530718F49A01BE01DF01EF01F2
:104CD0000280F381E02DDCCF2115310509F1281B7D
:104CE000390B2430310590F412968D919C911397D5
:104CF0006115710521F0FB019383828304C09093B9
:104D0000250480932404FD01329644C0FD01E20F86
:104D1000F31F81939193225031092D933C933AC014
:104D20002091220430912304232B41F420910D0182
:104D300030910E01309323042093220420910B0123
:104D400030910C012115310541F42DB73EB740914A
:104D50000F0150911001241B350BE0912204F091BA
:104D60002304E217F307A0F42E1B3F0B2817390783
:104D700078F0AC014E5F5F4F2417350748F04E0FB7
:104D80005F1F50932304409322048193919302C0A8
:104D9000E0E0F0E0CF01DF91CF9108950F931F93F2
:104DA000CF93DF93009709F48CC0FC0132971382F4
:104DB000128200912404109125040115110581F43B
:104DC00020813181820F931F20912204309123048E
:104DD0002817390779F5F0932304E093220471C072
:104DE000D80140E050E0AE17BF0750F412962D9165
:104DF0003C911397AD012115310509F1D901F3CF8C
:104E00009D01DA013383228360817181860F971FB0
:104E10008217930769F4EC0128813981260F371F27
:104E20002E5F3F4F318320838A819B8193838283CE
:104E3000452B29F4F0932504E093240442C01396F3
:104E4000FC93EE931297ED01499159919E01240F25
:104E5000351FE217F30771F480819181840F951F4C
:104E6000029611969C938E938281938113969C93C4
:104E70008E931297E0E0F0E0D80112968D919C910C
:104E80001397009719F0F8018C01F6CF8D919C9142
:104E900098012E5F3F4F820F931F20912204309183
:104EA00023042817390769F4309729F41092250450
:104EB0001092240402C013821282109323040093E0
:104EC0002204DF91CF911F910F910895A0E0B0E0EF
:104ED000ECE6F7E20C945921EC01009721F4CB01A8
:104EE0000E943926B8C0FC01E60FF71F9C01225032
:104EF0003109E217F30708F4ACC0D9010D911C91F8
:104F0000119706171707B0F00530110508F49FC078
:104F1000C80104978617970708F499C00250110931
:104F2000061B170B019311936D937C93CF010E9485
:104F3000CE268DC05B01A01AB10A4C01800E911ED5
:104F4000A0912404B091250440E050E0E12CF12C24
:104F5000109709F44AC0A815B905D1F56D907C9059
:104F60001197630182E0C80ED11CCA14DB0480F1E2
:104F7000A3014A195B096A0182E0C80ED11C12968E
:104F8000BC9012971396AC91B5E0CB16D10440F0CB
:104F9000B282A38351834083D9016D937C930AC06D
:104FA0000E5F1F4FC301800F911FF9019183808312
:104FB000EB2DFA2FE114F10431F0D7011396FC9395
:104FC000EE93129744C0F0932504E09324043FC06D
:104FD0008D919C9111974817590708F4AC017D01F8
:104FE00012960D90BC91A02DB3CF80912204909188
:104FF000230488159905E1F446175707C8F48091F2
:105000000B0190910C01009741F48DB79EB7409130
:105010000F0150911001841B950BE817F907C8F494
:10502000F0932304E0932204F901718360830FC09D
:10503000CB010E9439267C01009759F0A801BE01DE
:105040000E943528CE010E94CE26C70104C0CE01A1
:1050500002C080E090E0CDB7DEB7EEE00C947521A1
:1050600081E090E0F8940C944528FB01DC0102C03B
:1050700001900D9241505040D8F70895FB01DC019A
:1050800001900D920020E1F7089511E0C0EAD1E00F
:1050900004C0FE010E9433262196C13AD107C9F708
:0450A000F894FFCFB2
:1050A400FF01860000000000790A00000026048049
:1050B400005E00BC007701000000005E02CB01F638
:1050C40001A502270205021902000000005A042A61
:1050D400048A04FE0322040E04FF03000000000FF0
:1050E40003CB018A040E0363037B03F60200000072
:1050F40000E509CB018A048904000000008D04CB7B
:10510400018A0489040000400014005400435243FF
:10511400206572726F723A2000202F20000D0A0061
:10512400434F3220207761697420202020002073AF
:1051340000434F32202000474F4F44004E4F524D02
:10514400004241440048454C4C0054656D702000B9
:0C51540048756D6420006D6D48672000F8
:107800000C94343C0C94513C0C94513C0C94513CE1
:107810000C94513C0C94513C0C94513C0C94513CB4
:107820000C94513C0C94513C0C94513C0C94513CA4
:107830000C94513C0C94513C0C94513C0C94513C94
:107840000C94513C0C94513C0C94513C0C94513C84
:107850000C94513C0C94513C0C94513C0C94513C74
:107860000C94513C0C94513C11241FBECFEFD8E036
:10787000DEBFCDBF11E0A0E0B1E0ECE9FFE702C060
:1078800005900D92A230B107D9F712E0A2E0B1E065
:1078900001C01D92AD30B107E1F70E942D3D0C945F
:1078A000CC3F0C94003C982F959595959595959582
:1078B000905D8F708A307CF0282F295A8091C0000B
:1078C00085FFFCCF9093C6008091C00085FFFCCF60
:1078D0002093C6000895282F205DF0CF982F809127
:1078E000C00085FFFCCF9093C6000895EF92FF92F1
:1078F0000F931F93EE24FF2487018091C00087FD22
:1079000017C00894E11CF11C011D111D81E4E8164B
:1079100082E4F8068FE0080780E0180770F3E09132
:107920000401F091050109958091C00087FFE9CF1E
:107930008091C6001F910F91FF90EF9008950E94D3
:10794000763C982F8091C00085FFFCCF9093C600B5
:1079500091362CF490330CF09053892F089597555D
:10796000892F08951F930E949F3C182F0E949F3CCF
:107970001295107F810F1F9108951F93182F882350
:1079800021F00E94763C1150E1F71F9108951F935A
:10799000182F0E94763C803249F0809103018F5F5E
:1079A000809303018530C1F01F9108958091C0003C
:1079B00085FFFCCF84E18093C6008091C00085FFE5
:1079C000FCCF1093C6008091C00085FFFCCF80E102
:1079D0008093C6001F910895E0910401F091050184
:1079E00009951F9108950E94763C803241F0809164
:1079F00003018F5F80930301853081F008958091AA
:107A0000C00085FFFCCF84E18093C6008091C00058
:107A100085FFFCCF80E18093C6000895E0910401CA
:107A2000F09105010995089540E951E08823A1F0FE
:107A30002D9A28EE33E0FA013197F1F721503040CA
:107A4000D1F72D9828EE33E0FA013197F1F7215064
:107A50003040D1F7815061F708953F924F925F9285
:107A60006F927F928F929F92AF92BF92CF92DF924E
:107A7000EF92FF920F931F93CF93DF93000080E16B
:107A80008093C4001092C50088E18093C10086E015
:107A90008093C2005098589A259A81E00E94143D24
:107AA00024E1F22E9EE1E92E85E9D82E0FE0C02ECA
:107AB00010E1B12EAA24A394B1E49B2EA6E58A2E50
:107AC000F2E57F2EE0E26E2E79E4572E63E5462E36
:107AD00050E5352E0E94763C8033B1F18133B9F107
:107AE000803409F46FC0813409F476C0823409F41B
:107AF00085C0853409F488C0803531F1823521F1A3
:107B0000813511F1853509F485C0863509F48DC0BC
:107B1000843609F496C0843709F403C1853709F423
:107B200072C1863709F466C0809103018F5F80932C
:107B30000301853079F6E0910401F0910501099582
:107B40000E94763C803351F60E94F33CC3CF0E94E2
:107B5000763C803249F78091C00085FFFCCFF092DF
:107B6000C6008091C00085FFFCCF9092C600809136
:107B7000C00085FFFCCF8092C6008091C00085FFC9
:107B8000FCCF7092C6008091C00085FFFCCF609250
:107B9000C6008091C00085FFFCCF5092C600809146
:107BA000C00085FFFCCF4092C6008091C00085FFD9
:107BB000FCCF3092C6008091C00085FFFCCFB09210
:107BC000C60088CF0E94763C863808F4BDCF0E945C
:107BD000763C0E94F33C7ECF0E94763C803809F4CC
:107BE0009CC0813809F40BC1823809F43CC1883942
:107BF00009F48FC080E00E94C73C6CCF84E10E94F2
:107C0000BD3C0E94F33C66CF85E00E94BD3C0E94D3
:107C1000F33C60CF0E94763C809306010E94763C44
:107C2000809307010E94F33C55CF0E94763C80333D
:107C300009F41DC183E00E94BD3C80E00E94C73C66
:107C400049CF0E94763C809309020E94763C809343
:107C5000080280910C028E7F80930C020E94763C79
:107C6000853409F415C18091080290910902892B8D
:107C700089F000E010E00E94763CF801E85FFE4FDA
:107C800080830F5F1F4F80910802909109020817AF
:107C9000190788F30E94763C803209F045CF809125
:107CA0000C0280FF01C16091060170910701660F0F
:107CB000771F7093070160930601A0910802B091AD
:107CC00009021097C9F0E8E0F1E09B01AD014E0F09
:107CD0005F1FF999FECF32BD21BD819180BDFA9A17
:107CE000F99A2F5F3F4FE417F50799F76A0F7B1F4B
:107CF00070930701609306018091C00085FFFCCF5F
:107D0000F092C6008091C00085FFFCCFB092C60003
:107D1000E1CE83E00E94C73CDDCE82E00E94C73CFA
:107D2000D9CE0E94763C809309020E94763C8093D3
:107D300008028091060190910701880F991F909386
:107D40000701809306010E94763C853409F4A6C0A1
:107D500080910C028E7F80930C020E94763C8032D0
:107D600009F0B8CE8091C00085FFFCCFF092C6002C
:107D7000609108027091090261157105B9F140E046
:107D800050E080910C02A82FA170B82FB27011C0E2
:107D9000BB2309F45CC0E0910601F0910701319624
:107DA000F0930701E09306014F5F5F4F46175707B7
:107DB000E8F4AA2369F3F999FECF209106013091E6
:107DC000070132BD21BDF89A90B58091C00085FFB2
:107DD000FCCF9093C6002F5F3F4F30930701209355
:107DE00006014F5F5F4F4617570718F38091C00099
:107DF00085FDE5CE8091C00085FFF8CFE0CE81E023
:107E00000E94C73C67CE0E94763C803209F08CCE3F
:107E10008091C00085FFFCCFF092C6008091C00029
:107E200085FFFCCFE092C6008091C00085FFFCCFAB
:107E3000D092C6008091C00085FFFCCFC092C600E2
:107E40008091C00085FFFCCFB092C60043CEE09188
:107E50000601F091070194918091C00085FFFCCF4D
:107E60009093C6009CCF80E10E94C73C33CE0E9415
:107E7000763C0E94763C182F0E94763C112309F430
:107E800083C0113009F484C08FE00E94C73C22CE29
:107E900080910C02816080930C02E5CE80910C02EF
:107EA000816080930C0259CF809107018823880F4D
:107EB000880B8A2180930B02809106019091070123
:107EC000880F991F90930701809306018091080203
:107ED00080FF09C080910802909109020196909359
:107EE000090280930802F894F999FECF1127E091D6
:107EF0000601F0910701C8E0D1E08091080290915D
:107F00000902103091F40091570001700130D9F34B
:107F100003E000935700E89500915700017001308D
:107F2000D9F301E100935700E89509901990009169
:107F3000570001700130D9F301E000935700E89534
:107F40001395103498F011270091570001700130FB
:107F5000D9F305E000935700E895009157000170B0
:107F60000130D9F301E100935700E895329602976A
:107F700009F0C7CF103011F00296E5CF112480919F
:107F8000C00085FFB9CEBCCE8EE10E94C73CA2CD19
:0C7F900085E90E94C73C9ECDF894FFCF0D
:027F9C00800063
:040000030000780081
:00000001FF
